{
  "contractName": "Counter",
  "abi": [
    {
      "inputs": [],
      "stateMutability": "nonpayable",
      "type": "constructor"
    },
    {
      "inputs": [],
      "name": "counter",
      "outputs": [
        {
          "internalType": "uint8",
          "name": "",
          "type": "uint8"
        }
      ],
      "stateMutability": "view",
      "type": "function",
      "constant": true
    },
    {
      "inputs": [],
      "name": "count",
      "outputs": [],
      "stateMutability": "nonpayable",
      "type": "function"
    },
    {
      "inputs": [
        {
          "internalType": "uint8",
          "name": "x",
          "type": "uint8"
        }
      ],
      "name": "set",
      "outputs": [],
      "stateMutability": "nonpayable",
      "type": "function"
    }
  ],
  "bytecode": "0x608060405234801561001057600080fd5b5060008060006101000a81548160ff021916908360ff1602179055506102368061003b6000396000f3fe608060405234801561001057600080fd5b50600436106100415760003560e01c806306661abd1461004657806324b8ba5f1461005057806361bc221a1461006c575b600080fd5b61004e61008a565b005b61006a60048036038101906100659190610143565b6100bf565b005b6100746100f4565b604051610081919061017f565b60405180910390f35b600160008054906101000a900460ff166100a491906101c9565b6000806101000a81548160ff021916908360ff160217905550565b8060008054906101000a900460ff166100d891906101c9565b6000806101000a81548160ff021916908360ff16021790555050565b60008054906101000a900460ff1681565b600080fd5b600060ff82169050919050565b6101208161010a565b811461012b57600080fd5b50565b60008135905061013d81610117565b92915050565b60006020828403121561015957610158610105565b5b60006101678482850161012e565b91505092915050565b6101798161010a565b82525050565b60006020820190506101946000830184610170565b92915050565b7f4e487b7100000000000000000000000000000000000000000000000000000000600052601160045260246000fd5b60006101d48261010a565b91506101df8361010a565b92508260ff038211156101f5576101f461019a565b5b82820190509291505056fea2646970667358221220b91d2f39ef30cd3b6357522578e58ec7d5ad9a4b5195ccaf1dd6cac94275c4cd64736f6c634300080b0033",
  "immutableReferences": {},
  "source": "pragma solidity >=0.4.22 <0.9.0;\r\n\r\ncontract Counter {\r\n    uint8 public counter;\r\n\r\n    constructor() {\r\n        counter = 0;\r\n        }\r\n\r\n    function count() public {\r\n        counter = counter + 1;\r\n        }\r\n\r\n\r\n    function set(uint8 x) public {\r\n        counter = counter + x;\r\n        }\r\n}",
  "sourcePath": "E:\\MySelfSC\\solidityLearn\\W1-1\\contracts\\Counter.sol",
  "compiler": {
    "name": "solc",
    "version": "0.8.11+commit.d7f03943.Emscripten.clang"
  },
  "schemaVersion": "3.4.5",
  "updatedAt": "2022-02-27T14:49:32.798Z",
  "networkType": "ethereum",
  "devdoc": {
    "kind": "dev",
    "methods": {},
    "version": 1
  },
  "userdoc": {
    "kind": "user",
    "methods": {},
    "version": 1
  }
}